:020000040800F2
:10000000284D00204D03000807310008612C00082E
:1000100005310008590600084D38000800000000AE
:100020000000000000000000000000008D02000839
:100030004910000800000000E902000835320008FD
:1000400067030008670300086703000867030008E8
:1000500067030008670300086703000867030008D8
:1000600067030008670300086703000867030008C8
:1000700067030008670300086703000867030008B8
:1000800067030008670300086703000867030008A8
:100090005D0600086703000867030008670300089F
:1000A0006703000867030008670300086703000888
:1000B0006703000867030008670300086703000878
:1000C0006703000867030008670300086703000868
:1000D00067030008953700086703000867030008F6
:1000E0006703000867030008670300086703000848
:1000F0006703000867030008670300086703000838
:100100006703000867030008670300086703000827
:100110006703000867030008053300086703000849
:100120006703000867030008990F000867030008C9
:1001300067030008670300086703000867030008F7
:100140008D060008670300086703000867030008BE
:1001500067030008670300086703000867030008D7
:1001600067030008670300086703000867030008C7
:100170006703000867030008670300080000000029
:1001800067030008670300086703000867030008A7
:100190006703000867030008670300086703000897
:1001A00000000000000000006703000800F002F8F3
:1001B00000F05CF80AA090E8000C82448344AAF1A5
:1001C0000107DA4501D100F051F8AFF2090EBAE8A3
:1001D0000F0013F0010F18BFFB1A43F0010318477B
:1001E00078520000985200000A444FF0000C10F8BA
:1001F000013B13F0070408BF10F8014B1D1108BFA5
:1002000010F8015B641E05D010F8016B641E01F844
:10021000016BF9D113F0080F1EBF10F8014BAD1C94
:100220000C1B09D16D1E58BF01F801CBFAD505E0B2
:1002300014F8016B01F8016B6D1EF9D59142D6D30C
:10024000704700000023002400250026103A28BF34
:1002500078C1FBD8520728BF30C148BF0B60704738
:100260001FB505F05AF81FBD10B510BD00F0A6F976
:100270001146FFF7F5FF03F021FB00F0C4F903B4CA
:10028000FFF7F2FF03BC00F0CBF900002C4B19681C
:100290000868B0E8F04F80F30988BFF36F8F4FF024
:1002A000000080F3118870470000000008480068D3
:1002B000006880F308884FF0000080F3148862B66D
:1002C00061B6BFF34F8FBFF36F8F00DF00BF00BF7A
:1002D00008ED00E0DFF80C00016841F470010160F6
:1002E000704700BF88ED00E0EFF30980BFF36F8F28
:1002F000134B1A681EF0100F08BF20ED108A20E97A
:10030000F04F106009B44FF0500080F31188BFF334
:100310004F8FBFF36F8F03F0D5FF4FF0000080F3D6
:10032000118809BC19680868B0E8F04F1EF0100F7A
:1003300008BFB0EC108A80F30988BFF36F8F704755
:1003400034000020EFF30580704700000948804723
:1003500009480047FEE7FEE7FEE7FEE7FEE7FEE7A7
:10036000FEE7FEE7FEE7FEE704480549054A064BBF
:1003700070470000F5320008AD0100082847002052
:10038000284D0020284900202849002053EA020C6B
:1003900000F069802DE9F04B4FF00006002B1FBFE5
:1003A000B3FA83F503FA05F424FA05F65E4012BFAA
:1003B0001643B2FA82F502FA05F4C5F120051EBF14
:1003C00022FA05FC44EA0C04203556EA044C4FEAB4
:1003D000144418BF641C4FF000084FF0000990420D
:1003E00071EB030C39D3002919BFB1FA81F701FA77
:1003F00007F6B0FA80F700FA07F6C7F120071EBF2C
:1004000020FA07FC46EA0C062037B6FBF4FCA7EB03
:100410000507103F07F01F0BCBF120060CFA0BFB72
:100420002CFA06F644BFB3460026202FA4BF5E4632
:100430004FF0000B5BEA060C08BF4FF0010B19EB05
:100440000B09ABFB027C48EB0608C01B06FB02CC89
:100450000BFB03CC71EB0C01C1E70B460246414696
:100460004846BDE8F08B13B54FF000004FF0000197
:10047000AFF30080BDE81C407047032A40F2308093
:1004800010F0030C00F0158011F8013BBCF1020FD5
:10049000624498BF11F801CB00F8013B38BF11F856
:1004A000013BA2F1040298BF00F801CB38BF00F86D
:1004B000013B11F0030300F02580083AC0F00880EA
:1004C00051F8043B083A51F804CBA0E80810F5E7CE
:1004D000121D5CBF51F8043B40F8043BAFF30080B1
:1004E000D20724BF11F8013B11F801CB48BF11F826
:1004F000012B24BF00F8013B00F801CB48BF00F8F6
:10050000012B704710B5203AC0F00B80B1E81850AD
:10051000203AA0E81850B1E81850A0E81850BFF4ED
:10052000F5AF5FEA027C24BFB1E81850A0E818508C
:1005300044BF18C918C0BDE810405FEA827C24BFE0
:1005400051F8043B40F8043B08BF7047D20728BF6E
:1005500031F8023B48BF11F8012B28BF20F8023BBD
:1005600048BF00F8012B70474FF0000200B513465A
:1005700094469646203922BFA0E80C50A0E80C50C3
:10058000B1F12001BFF4F7AF090728BFA0E80C5074
:1005900048BF0CC05DF804EB890028BF40F8042B6D
:1005A00008BF704748BF20F8022B11F0804F18BFDA
:1005B00000F8012B7047704770477047754600F090
:1005C0002BF8AE4605006946534620F007008546E5
:1005D00018B020B5FFF7C8FEBDE820404FF0000678
:1005E0004FF000074FF000084FF0000B21F007011B
:1005F000AC46ACE8C009ACE8C009ACE8C009ACE85E
:10060000C0098D46704710B50446AFF30080204600
:10061000BDE81040FFF733BE00487047C8460020D1
:1006200001491820ABBEFEE726000200704700001B
:100630008AB0084E6C464FF0FF3707AD3A46694620
:10064000306804F08FF801232A46211D009800F03D
:1006500019FDF3E71C000020FEE70000084810B574
:1006600000684069800706D50648012243680648AD
:10067000016803489847BDE81040014800F06BBE90
:10068000040600209C00002014000020084810B53B
:1006900000684069800706D506480222436806487C
:1006A000016803489847BDE81040014800F053BE78
:1006B0002C0600209C000020180000203EB50D0AEA
:1006C000069C8DF804508DF80510110A8DF806105F
:1006D000190A8DF808108DF80930210A8DF80A10D2
:1006E00001A9009106498DF807208DF80B408C6810
:1006F0000146044840F2FF1300220068A0473EBDB7
:100700009C0000201C0000203EB50D0A069C8DF8C0
:1007100004508DF80510110A8DF80610190A8DF88D
:1007200008108DF80930210A8DF80A1001A90091EE
:1007300006498DF807208DF80B408C680146044867
:100740004FF4007300220068A0473EBD9C000020CB
:100750001C0000203EB50D0A069C8DF804508DF853
:100760000510110A8DF80610190A8DF808108DF879
:100770000930210A8DF80A1001A9009106498DF867
:1007800007208DF80B408C680146044840F2FF2397
:1007900000220068A0473EBD9C0000201C000020F5
:1007A00038B540F201630091034900228C6801468C
:1007B00002480068A04738BD9C0000201C000020B3
:1007C00010B50446491EC8B200EB400101EB001011
:1007D0000D49002201EB800101230A614A614A624E
:1007E000C1E906230A604A608A600B622046CA603B
:1007F00000F0B6FC204600F0BDFF2068416941F0E2
:100800000201416110BD000088440020F0B5521E75
:100810000E46D5B205EB450101EB0512114993B027
:1008200001EB820404F128010F460A4604F1440357
:10083000002100F01CFD05EBC502684600EB8205B7
:1008400039461C222846FFF75DFED4E91101C5E9AF
:100850000701002329461A46304603F023FF13B050
:10086000F0BD000088440020F8B511480024009431
:1008700090ED030A0F4D2346B1EE400A2E68BDEEFF
:10088000C00A224610EE100A01B20B48B0470B48CE
:100890000094002390ED030A2C681946B1EE400A3B
:1008A000BDEEC00A10EE100A02B20548A047F8BD1E
:1008B00098460020A003002004060020B046002037
:1008C0002C06002010B58AB00C9C009192B10293C6
:1008D0000021CDE90321082205928DF81810216826
:1008E00007916168002308911A46694603F02AFEC1
:1008F0000AB010BD0193EBE790ED050A002180EDF1
:10090000020A80ED040AC160704700008EB0124DEB
:10091000124FDFF84C804FF0FF3A40F205260DF100
:100920002409524605A9286803F01CFF059C4FF0D6
:100930001402B4424946684604D1FFF7E3FDD7F8F4
:1009400000C003E0FFF7DEFDD8F800C0DDE90612C5
:100950002046089BE047E4E7140000200401002043
:10096000EC0000208EB01B4E1B4D4FF0FF3940F2C3
:1009700095170DF124084A4605A9306803F0F2FEE8
:10098000059CBC4207D1142241466846FFF7BAFDD8
:10099000D5F800C00FE0A4F58071653911D0A4F539
:1009A00000710639E7D1142241466846FFF7AAFDD7
:1009B0000A48D0F800C0DDE906122046089BE0474F
:1009C000D9E7142241466846FFF79CFDD5F804C0DC
:1009D000F1E7000018000020C00000200401002002
:1009E00070B5124C218800F0A7FA00EE100A9FEDB6
:1009F000101A104DB8EEC00A2846E96BC0EE010A85
:100A00009FED0D0A88470D4E86ED020AB4F90200EB
:100A100000EE100A05F14000F8EEC00AC16B95ED3A
:100A20000B0A884786ED030A70BD000028460020A7
:100A30008805B6412002002000000000704600201A
:100A40002DE9F041154F164D0646002405EB4411E3
:100A500036F914000881B1F9021000EE101AF8EE10
:100A6000C00A00EE100A57F82400B8EEC00A816BE5
:100A70008847BDEEC00A10EE100A26F81400641C68
:100A8000042CE3DB5FF0000105EB411236F81100A6
:100A9000491CD0820429F7DBBDE8F0811002002058
:100AA0006845002030B50020094A0124034600BFF4
:100AB00052F820104D884DB181F8043052F82010C2
:100AC000401CC0B24B800228F2D330BD0C71F5E758
:100AD000AC000020054806490022038813B10A77BC
:100AE0000280704701230B77FAE70000D400002052
:100AF0002045002030B50020094A0124034600BFEC
:100B000052F820104D8B45B181F81C3052F820105E
:100B1000401C02284B83F3DB30BD0C77F6E7000066
:100B2000E400002030B500200A4A0124034600BF3B
:100B300052F82010CD8B4DB181F8203052F82010A2
:100B4000401CC0B2CB830228F2D330BD81F82040D4
:100B5000F4E70000FC00002030B50020074B012422
:100B6000024600BF03EB40114D8B2DB10A77401CAC
:100B70004A830428F6DB30BD0C77F8E7684500208F
:100B800010B504004ED084EC020A30EE600A04F185
:100B9000240084ED020AD4ED030A70EE600AC4ED6D
:100BA000040A94ED051A21EE001A84ED081A94ED5A
:100BB000091AD4ED061A01EE801A84ED091A94ED93
:100BC000070A20EE800A84ED0A0A94ED0E0A02F06C
:100BD0004EFE94ED020AB5EEC00AF1EE10FA01DC09
:100BE000B1EE400AD4ED0D0AB4EEE00AF1EE10FACF
:100BF00094ED080A03DAD4ED090A30EE200AD4EDA8
:100C00000A0A04F12C0030EE200A84ED0B0A94ED60
:100C10000C0A02F02CFE94ED020A84ED030A94ED16
:100C20000B0A10BD9FED010A10BD0000000000007E
:100C300010B504003ED084EC020A30EE600A04F1E4
:100C4000240084ED020AD4ED030A70EE600AC4EDBC
:100C5000040A94ED051A21EE001A84ED081A94EDA9
:100C6000091AD4ED061A01EE801A84ED091A94EDE2
:100C7000070A20EE800A84ED0A0A94ED0E0A02F0BB
:100C8000F6FD94ED080AD4ED090A04F12C0030EECB
:100C9000200AD4ED0A0A30EE200A84ED0B0A94ED06
:100CA0000C0A02F0E4FD94ED020A84ED030A94EDCF
:100CB0000B0A10BD9FED010A10BD000000000000EE
:100CC00010B504004ED084EC020A30EE600A04F144
:100CD000240084ED020AD4ED030A70EE600AC4ED2C
:100CE000040A94ED051A21EE001A84ED081A94ED19
:100CF000091AD4ED061A01EE801A84ED091A94ED52
:100D0000070A20EE800A84ED0A0A94ED0E0A02F02A
:100D1000AEFD94ED020AB5EEC00AF1EE10FA01DC68
:100D2000B1EE400AD4ED0D0AB4EEE00AF1EE10FA8D
:100D300094ED080A03DAD4ED090A30EE200AD4ED66
:100D40000A0A04F12C0030EE200A84ED0B0A94ED1F
:100D50000C0A02F08CFD94ED020A84ED030A94ED76
:100D60000B0A10BD9FED010A10BD0000000000003D
:100D700010B504003ED084EC020A30EE600A04F1A3
:100D8000240084ED020AD4ED030A70EE600AC4ED7B
:100D9000040A94ED051A21EE001A84ED081A94ED68
:100DA000091AD4ED061A01EE801A84ED091A94EDA1
:100DB000070A20EE800A84ED0A0A94ED0E0A02F07A
:100DC00056FD94ED080AD4ED090A04F12C0030EE2A
:100DD000200AD4ED0A0A30EE200A84ED0B0A94EDC5
:100DE0000C0A02F044FD94ED020A84ED030A94ED2E
:100DF0000B0A10BD9FED010A10BD000000000000AD
:100E000070B52349234C2DED048B91ED019A84EDAF
:100E1000049A04F011F89FED200B53EC102B04F012
:100E200023F841EC180B606904F006FA53EC182B18
:100E300003F05AFF03F026FF19496061884202D38C
:100E40009FED180A07E01849884202DA94ED050A76
:100E500003E09FED160A84ED050A154DF0EE490AF0
:100E60002846E96B8847134884ED020AB0F902006E
:100E700000EE100A05F14000F8EEC00AC16B95EDD6
:100E80000B0A884784ED030ABDEC048B70BD00009B
:100E900020450020B04600207B14AE47E17A843F15
:100EA000000061C4000061C40000434400004344EA
:100EB000200300204C46002070B51A4D1A4C2DED31
:100EC000048B95ED049A84ED009A03F0B5FF9FED35
:100ED000170B53EC102B03F0C7FF41EC180B6068A5
:100EE00004F0AAF953EC182B03F0FEFE03F0CAFE3F
:100EF00000EE100A0F4E84ED010AF0EE490AF16B84
:100F00003046884784ED020A06F14000D5ED050A17
:100F1000C16B96ED0B0A884784ED030ABDEC048B88
:100F200070BD00002045002098460020FCA9F1D2A9
:100F30004D62503FA0020020401AB0F5805F03DDF3
:100F4000A0F5F850FF38704710F5805FFBDA41F6E6
:100F5000FF710844704700000FB4074900206A463B
:100F600013181B7F0B54401C0828F9DB0888401C11
:100F7000088004B070470000D40000200FB4054A78
:100F8000002069460B181B7F1354401C0828F9DB0E
:100F900004B07047DC000020014800F079BC00007C
:100FA000F006002001681823CAB2103AB2FBF3F22F
:100FB000054B6FF30901032A9B5CC36500D9091D2A
:100FC0008165084670470000EC53000810B50146E3
:100FD00000208B698A6A4FF0C07453B1B3F5005F8B
:100FE00015D072B1012A0CD0022A0AD0032A09D1E5
:100FF00004E01AB1012A06D0022A03D1C96AC90144
:1010000000D5012010BDC96AA142FAD010BD002A46
:10101000F7D0012AF2D0022AF3D0032AF3D010BD70
:1010200030B50468256825F4802525600468636070
:101030008368402B036803D099600068C26030BDAC
:101040009A600068C16030BD704772B6FEE700006C
:1010500008B503F0C3FC094D094C01260090A868AF
:101060008047207810B902F017FC267002F08EF845
:101070000221684603F07CF8F1E70000C000002080
:1010800014010020F0B590F820500468A468012DE8
:1010900005D0022D03D0416A41F480215DE014F0B7
:1010A000406F01D1E50055D5C4F30164022C03D98A
:1010B000416A41F4000150E00125A5401D608D68A2
:1010C0004FF4C0739DB1CE6835434E6845EAC605FE
:1010D000066803EB0417F5514FF4C275076805EB7A
:1010E00004150E697E51097D012905D009E00E889D
:1010F000CD6845EA4655EBE701684E5946F48076DF
:101100004E511179D579567941EA056195792D04C9
:1011100045EA062529434FF4C676056806EB041612
:10112000A9511178D57841EA0561957852782D0456
:1011300045EA022211434FF4C475026805EB041519
:101140005151006803EB0411425842F00102425031
:101150000020F0BD416A41F4001141620120F0BD60
:1011600010B590F82020012A07D0022A05D0416A44
:1011700041F480214162012010BD3B48D0F800229B
:1011800042F00102C0F80022D0F8002222F47C5282
:10119000C0F80022D0F800224B6A42EA0322C0F8CD
:1011A00000220A7D02F01F0301229A40D0F81C326F
:1011B0009343C0F81C32CB69B3B9D0F80C329343D7
:1011C000C0F80C328C894B6864F31F434C6900EB08
:1011D000C404C4F840320C890B6864F31F434C69A3
:1011E00000EBC404C4F84432CB69012B16D1D0F80B
:1011F0000C321343C0F80C320C884B6864F31F4365
:101200004C6900EBC404C4F840320C89CB6864F329
:101210001F434C6900EBC404C4F844328B69002BB3
:10122000D0F804320ED01343C0F804320B69002BFF
:10123000D0F8143208D01343C0F81432096A0129D7
:1012400004D008E09343EFE79343F5E7D0F81C128E
:101250001143C0F81C12D0F8001221F00101C0F8AF
:101260000012002010BD000000640040704730B53F
:1012700090F82040012C05D0022C03D0416A41F4A3
:1012800080215DE00468002955D02469A40754D06A
:101290004FF4D874056804EB01142D5915F00405BA
:1012A000956005682D594ED0ED08556005682C599C
:1012B00004F00204D4604FF4DA74056804EB0114FE
:1012C0002D5905F00F05156105682D59C5F3072542
:1012D000956105682C59240C54614FF4DC72046844
:1012E00002EB0112A4581C700468A458240A5C7014
:1012F0000468A458240C9C700468A258120EDA707A
:101300004FF4DE72046802EB0112A4581C710468E9
:10131000A458240A5C710468A458240C9C710468C5
:10132000A258120EDA71006881B1016941F0200102
:101330000161002030BDE468A8E7416A41F4001172
:101340004162012030BD6D0D1560AFE7C16841F00D
:101350002001C160EDE72DE9F05F0546006800243B
:101360004669D0F804908768D0F80CB0D0F810A087
:10137000D0F81880F10748D0F90714D00121816016
:10138000B80703D5284600F022FA0CE0780702D50A
:101390004FF4006407E0380702D54FF4805402E0B0
:1013A000284600F013FAF80516D529684FF4807026
:1013B0008860B80503D5284600F00BFA0CE07805E4
:1013C00002D544F4005407E0380502D544F48044C3
:1013D00002E0284600F0FCF9F80316D529684FF41E
:1013E00080308860B80303D5284600F0F4F90CE09B
:1013F000780302D544F4004407E0380302D544F4EE
:10140000803402E0284600F0E5F9300707D55FEAAE
:10141000CB6004D52968102044F40074C8607007BC
:101420004FF0080707D55FEA0B7004D52868C7603E
:10143000284600F099F9B00706D52868C0688007EB
:1014400002D0284600F091F9700607D55FEACA601D
:1014500004D52968102044F480640861B00607D5DB
:101460005FEA0A7004D528680761284600F07EF913
:10147000F00606D528680069800702D0284600F0EB
:1014800076F9B00308D55FEAC96005D52968102050
:101490004860284600F06CF9F00307D55FEA097050
:1014A00004D528684760284600F096F9300446D5F0
:1014B0005FEA497040D5F00504D55FEAC87001D0F5
:1014C00044F00104B00504D55FEA887001D544F00A
:1014D0000204700504D55FEA487001D544F00404A5
:1014E000300529D518F0700F26D008F0700040287C
:1014F00015D006DC102809D020280AD0302816D1B3
:101500000AE050280ED0602811D10EE044F0080403
:101510000DE044F010040AE044F0200407E044F039
:10152000400404E044F0800401E044F4807428683E
:10153000816921F070018161296804204860002CD4
:1015400005D0686A204368622846FFF78FFEBDE831
:10155000F09F70B5040003D094F8200010B104E0AF
:10156000012070BD204600F081F82068016841F03C
:101570000101016000F018FC0546052604E000F0BA
:1015800013FC401B0A2811D820684068C007F6D019
:101590002068016821F00201016000F005FC0546A9
:1015A0000BE000F001FC401B0A2806D9606A40F4F9
:1015B0000030606284F82060D2E7206840688007CD
:1015C000EFD4207E0128206801683DD021F0800101
:1015D0000160607E01282068016838D021F0400158
:1015E0000160A07E01282068016833D021F020012D
:1015F0000160E07E0128206801682ED041F01001D2
:101600000160207F01282068016829D021F00801AD
:101610000160607F01282068016824D021F0040166
:101620000160D4E902010843D4E9041211430843DC
:101630006168491E08432168C8610020606201207A
:1016400084F82000002070BD41F08001C0E741F027
:101650004001C5E741F02001CAE721F01001CFE7C2
:1016600041F00801D4E741F00401D9E7F0B587B0B3
:10167000044614216846FEF777FF364B3648DFF8FC
:10168000D0E01968D4F800C0334A032502260927A0
:1016900010300024491CF44522D11960012907D1DA
:1016A000016841F000710160006800F00070059071
:1016B000106840F0080010601068CDE9005600F096
:1016C0000800CDE9047069462448CDE9024500F0E0
:1016D00051FA00220621142000F0F2FB142033E01E
:1016E000DFF87CE0F44531D1D0F800C04CF0806CDC
:1016F000C0F800C0D0F800C001290CF0806CCDF813
:1017000014C0196007D1016841F0007101600068E0
:1017100000F000700590106840F002001060106842
:1017200002AB00F0020005904FF44050CDE90006F6
:1017300083E8B00069460B4800F01CFA002206213D
:10174000402000F0BDFB402000F0ACFB07B0F0BD36
:10175000006400402000002030380240000C0240AD
:1017600000680040000402407047704770477047AF
:101770007047000070B5044690F82000012804D09E
:10178000606A40F40020606218E0022084F82000C3
:101790002068016821F00101016000F005FB0546A9
:1017A0000EE000BF00F000FB401B0A2808D9606A69
:1017B00040F400306062052084F82000012070BDF4
:1017C00020684068C007EDD1606270BD7047704707
:1017D000704770477047704770472DE9F0410446E5
:1017E000876D00F0E1FA064694F8350000250228DE
:1017F00006D08020606584F834500120BDE8F08177
:101800002068016821F0160101602068416921F01B
:1018100080014161206C08B9A06C20B1206801688A
:1018200021F0080101602068016821F001010160D8
:101830000CE000F0B9FA801B052807D9202060656C
:10184000032084F8350084F83450D7E72068006816
:10185000C007EED194F85C103F208840B8600120AA
:1018600084F8350084F834500020C7E790F835102C
:10187000022903D08021416501207047052180F8AD
:1018800035100068016821F00101016000207047F7
:101890002DE9F84304464FF00009CDF80090634865
:1018A0004FF41651A56D0068B0FBF1F72E6894F85F
:1018B0005C10082000FA01F131420FD021680A685B
:1018C00052070BD50A6822F004020A6094F85C10F3
:1018D0008840A860606D40F00100606594F85C107D
:1018E0004FF0010808FA01F0304208D02168496938
:1018F000090604D5A860606D40F00200606594F8A8
:101900005C1004208840304208D0216809688907AB
:1019100004D5A860606D40F00400606594F85C1028
:1019200010208840304218D021680968090714D572
:10193000A86020680168490304D50068000308D541
:10194000A16C07E00168C90503D4016821F0080112
:101950000160216C09B12046884794F85C10202072
:101960008840304231D021680968C9062DD5A86069
:1019700094F8350005282068016806D0490347D54A
:10198000006800031DD4616C1CE021F016010160A9
:101990002068416921F080014161206C08B9A06C88
:1019A00020B12068016821F00801016094F85C1002
:1019B0003F208840A86084F8358084F83490216DF9
:1019C0001FE0E16B09B120468847606D00282BD0ED
:1019D000606DC00714D0052084F8350020680168C8
:1019E00021F0010101600098401C0090B84203D82A
:1019F00020680068C007F6D184F8358084F83490F8
:101A0000E16C002910D001B02046BDE8F043084742
:101A10000168C905D5D4016821F01001016084F87E
:101A2000358084F83490CCE7BDE8F883300000209E
:101A30002DE9F041044600F0B7F906465CB10220FA
:101A400084F83500002584F834502068016821F0BE
:101A5000010101600DE00120BDE8F08100F0A4F972
:101A6000801B052805D920206065032084F83500F7
:101A7000F2E720680068C007F0D1226811682048AA
:101A80000140D4E901031843D4E903363343184332
:101A900063691843A3691843E3691843236A184329
:101AA0000843616A042903D1D4E90B13194308439D
:101AB000106020684069666A20F0070130460E43D6
:101AC000012704280CD1A06A0643E06A40B12046F1
:101AD000FFF77CFA20B14020606584F83570BAE7E2
:101AE000206846612046FFF75DFA94F85C203F21AC
:101AF00091408160656584F835700020ACE7000096
:101B00003F8010F02DE9F0410446866D90F83400D6
:101B1000002501280DD0012084F8340094F8357098
:101B20000020012F07D084F8340002252846BDE8A4
:101B3000F0810220FBE7022784F8357060652046BB
:101B4000FFF76EFA94F85C103F208840B060206880
:101B5000016841F016010160206C20B12068016825
:101B600041F0080101602068016841F00101016055
:101B7000DCE700002DE9F84FDFF8F8A1002201248E
:101B80000AF1040B03254FF00F090BF1040E00BFFF
:101B90000B6804FA02F63340B34270D10F7907F0B4
:101BA0000307012F01D0022F16D187684FEA4208A0
:101BB00005FA08FC27EA0C07D1F80CC00CFA08FC5F
:101BC0004CEA070CC0F808C04768B7430E79C6F363
:101BD000001696403E4346600E79F643B6070AD09B
:101BE000C7684FEA420C05FA0CF6B7438E6806FA4E
:101BF0000CF63E43C6600E7906F00306022E10D1A5
:101C0000D60800EB8608D8F8206057074FEAD76C53
:101C100009FA0CF7BE430F6907FA0CF73743C8F807
:101C2000207006684FEA420C05FA0CF7BE430F79A4
:101C300007F0030707FA0CF7374307604E6816F4FE
:101C4000403F1CD04C4E376847F4804737603668B9
:101C500022F0030706F480460096484E07EB060C78
:101C6000DCF8086897073F0F09FA07F826EA080624
:101C7000DFF80C81404503D14FF0000841E072E0ED
:101C8000DFF80081404502D14FF0010839E0DFF86C
:101C9000F880404502D14FF0020832E0DFF8EC80D6
:101CA000404502D14FF003082BE0DFF8E4804045C7
:101CB00002D14FF0040824E0DFF8D880404502D17B
:101CC0004FF005081DE0DFF8D080404502D14FF00D
:101CD000060816E0DFF8C480404502D14FF007083F
:101CE0000FE0DFF8BC80404502D14FF0080808E063
:101CF000DFF8B080404502D14FF0090801E04FF015
:101D00000A0808FA07F848EA0608CCF80888DAF85A
:101D100000605746D1F804C09E435FEACC3C00D532
:101D20001E433E60DBF800605F46D1F804C09E436E
:101D30005FEA8C3C00D51E433E60DEF800607746CB
:101D4000D1F804C09E435FEACC2C00D51E433E6010
:101D5000084F0C373E68D1F804C09E435FEA8C2CD4
:101D600000D51E433E60521C102AFFF411AFBDE89F
:101D7000F88F0000003C0140443802400030014030
:101D8000000002400004024000080240000C024033
:101D9000001002400014024000180240001C0240E3
:101DA0000020024000240240014880687047000083
:101DB0002400002002488168027811448160704745
:101DC000240000200B4810B5016841F40071016047
:101DD000016841F480610160016841F48071016033
:101DE000032000F08DF80F2000F006F800F03EF818
:101DF000002010BD003C024010B5014688B0002212
:101E0000362000F05DF8362000F04CF8134800242E
:101E1000016841F010010160006805A900F01000A0
:101E20000690684600F018F900F036F90C494000B9
:101E3000B0FBF1F10C480B4A491E026040F2E73258
:101E4000C0E90324C0E9011400F0C4FB10B1012073
:101E500008B010BD044800F0EBFBF9E74038024041
:101E600040420F0000100040500700200C4882B094
:101E7000016841F480410160006800F480400090F6
:101E80000748001F016841F080510160006800228E
:101E900000F0805000900F21901E02B000F010B8AA
:101EA00044380240002809DB00F01F020121914064
:101EB0004009800000F1E020C0F8001170470000E8
:101EC000F0B40E4B1B680C46C3F30223C3F10705A5
:101ED000042D00D90425191D072901D2002300E093
:101EE000DB1E012606FA05F1491E214099409E405D
:101EF000761E16403143F0BC01F0A9BC0CED00E0A9
:101F0000064900F0070208684FF6FF03184040EA50
:101F10000220034A10430860704700000CED00E007
:101F20000000FA052DE9F0470E46050065D0DFF800
:101F30001481D8F80000F7B200F00F00B04207D2C9
:101F400088F80070D8F8000000F00F00B04254D1BB
:101F500028683D4C810712D5400703D5206840F41E
:101F6000E05020602878000703D5206840F46040E6
:101F700020602068A96820F0F000084320602878DD
:101F8000C0072DD0304968680839012812D00228CE
:101F900013D0032811D00968890700292DDA216898
:101FA00021F0030101432160FFF7FEFE814641F26B
:101FB000883A0EE009688903EFE709688901ECE7D0
:101FC000FFF7F2FEA0EB0901514502D90320BDE85D
:101FD000F0872068696800F00C00B0EB810FEFD14A
:101FE000D8F80010404601F00F01B14207D9077040
:101FF000006800F00F00B04201D00120E7E7287828
:10200000400705D52068E96820F4E05008432060C7
:102010002878000706D52068296920F4604040EA46
:10202000C100206000F058F82168084AC1F303118C
:10203000515CC8400649086006480068FFF7DCFEAE
:102040000020C4E7003C024008380240F453000876
:1020500030000020280000200F2202600C4A136884
:1020600003F003034360136803F0F0038360136815
:1020700003F4E053C36012684FF4E05303EAD20262
:1020800002610448006800F00F000860704700001B
:1020900008380240003C02400448054900680968CD
:1020A000044AC1F38221515CC840704730000020CF
:1020B00008380240045400080448054900680968CB
:1020C000044AC1F34231515CC840704730000020DF
:1020D0000838024004540008154810B5006810F094
:1020E0000C02144813D01449042A0FD0082A0ED128
:1020F0000F4C241F2268236802F03F025B0207D5C1
:102100002068C0F38810A0FB010106E0084610BD5E
:102110002168C1F38811A1FB00010023FEF736F905
:102120002168C1F30141491C4900B0FBF1F010BD29
:10213000083802400024F400001BB7002DE9F84FD6
:1021400004006ED02078DFF84C93C007A9F1040595
:102150004AD009F104000168C1F38101012908D0C6
:102160000068C0F3810002280AD1D9F800004002BB
:1021700006D52868800337D560680028E1D033E0B1
:102180006068B0F5803F10D0B0F5A02F286810D05F
:1021900020F480302860286820F48020286060685F
:1021A000A8B1FFF701FE06460DE0286840F4803034
:1021B000F4E740F480202860F7E700BFFFF7F4FD64
:1021C000801B642873D828688003F7D50CE0FFF7DC
:1021D000EBFD064605E000BFFFF7E6FD801B642827
:1021E000F0D828688003F7D42078DFF8AC82800725
:1021F0004FF0000A3ED5A748001D016811F00C0FF2
:1022000008D00068C0F3810002280BD1D9F8000083
:10221000400207D42868800716D5E068012800D15D
:1022200012E033E1E068B8B10120C8F80000FFF720
:10223000BBFD064605E000BFFFF7B6FD801B022888
:10224000C0D828688007F7D52868216920F0F800F1
:1022500040EAC10028600DE0C8F800A0FFF7A4FD27
:10226000064604E0FFF7A0FD801B02281FD828685F
:102270008007F7D42078000722D5864F8748616908
:10228000703771B101210160FFF78EFD064604E051
:10229000FFF78AFD801B022809D838688007F7D528
:1022A0000EE0C0F800A0FFF77FFD064605E082E0E3
:1022B000FFF77AFD801B02287DD838688007F7D4A5
:1022C0002078400768D5DFF8CCB100270BF13C0B34
:1022D000DBF80000C0000BD4DBF8001041F08051A7
:1022E000CBF80010DBF80000012700F080500090D0
:1022F0006B4E3068C00510D4306840F48070306098
:10230000FFF752FD009005E0FFF74EFD0099401ADF
:10231000022850D83068C005F6D55E4EA0686C36ED
:1023200001280FD00528306810D020F0010030605F
:10233000306820F004003060A068B8B1FFF734FDC9
:1023400000900FE0306840F00100F4E740F0040036
:102350003060F7E7FFF728FD0099411A41F2883015
:10236000814266D830688007F4D50EE0FFF71CFD87
:10237000009007E0FFF718FD0099411A41F28830FC
:10238000814256D830688007F4D42FB1DBF80010B2
:1023900021F08051CBF80010A069C8B33D49091D58
:1023A0000968C1F3810102294AD00228504607D0AA
:1023B000C8F8600000E03CE0FFF7F6FC04463BE0B4
:1023C0004746C8F86000FFF7EFFC064605E000BF8F
:1023D000FFF7EAFC801B02282BD828688001F7D47D
:1023E000D4E907010843A16A2E4A490802EB0141DA
:1023F000626A41EA8211084394F82C1040EA0161B4
:10240000C9F8001001203866FFF7CEFC044606E04C
:102410003EE000BFFFF7C8FC001B022809D828686F
:102420008001F7D534E000BFFFF7BEFC001B022897
:1024300002D90320BDE8F88F28688001F4D427E092
:102440000128F7D0D9F80000E26900F48001914238
:102450001CD1226A00F03F01914217D147F6C071AA
:10246000626A0140B1EB821F10D1A26A4FF0FF33C4
:1024700000F4403103EB5202B1EB024F06D194F865
:102480002C1000F07060B0EB016F01D00120D1E79B
:102490000020CFE70438024000004742800E474248
:1024A000007000400000FFFF70B5040009D0606AB2
:1024B000002540B125616561A56294F8510040B1E5
:1024C0000CE0012070BD6068B0F5827FF4D0E5615A
:1024D000F2E784F85050204600F044F8022084F8D7
:1024E00051002068016821F040010160A088218925
:1024F00000F4827001F404410843A18901F40061F1
:102500000843217C01F002010843217D01F0010113
:102510000843218B01F400710843217F01F0380149
:10252000084394F8201001F080010843218D01F444
:102530000051084321680860A069042101EA1040A5
:1025400094F8241001F010010843216848602068C5
:10255000C16921F40061C1616565012084F8510001
:10256000002070BD10B586B0044614216846FDF702
:10257000FBFF14492068884221D1134800210268DA
:1025800042F480120260006800F4801005900E484A
:102590001438026842F020020260006800F0200057
:1025A00005904FF4607000900220CDE901010320F6
:1025B00003900520049069460448FFF7DBFA06B053
:1025C00010BD000000500140443802400014024099
:1025D0007047704710B5040003D094F83D0010B167
:1025E00007E0012010BD002084F83C00204600F0E8
:1025F0001EF8022084F83D00211D206800F088FEAE
:10260000012084F8460084F83E0084F83F0084F8F6
:10261000400084F8410084F8420084F8430084F8C4
:10262000440084F8450084F83D00002010BD704748
:1026300090F83D10012901D001207047022180F857
:102640003D100168CA6842F00102CA600068114981
:10265000884214D0B0F1804F11D00F4988420ED07B
:102660000E4988420BD00E49884208D00D49884255
:1026700005D00D49884202D00C49884204D18168B6
:1026800001F00701062903D0016841F00101016052
:102690000020704700000140000400400008004096
:1026A000000C0040000401400040014000180040C0
:1026B000704770B50446006801694FF00005C943D2
:1026C000890715D4C168C943890711D4E91E01617E
:1026D00001202077206880698007204602D0FFF71C
:1026E000E7FF04E000F098F8204600F096F8257720
:1026F00020680169C943490717D4C168C94349071C
:1027000013D46FF0040101610220207720688069F2
:1027100010F4407F204602D0FFF7CAFF04E000F02B
:102720007BF8204600F079F8257720680169C943D5
:10273000090716D4C168C943090712D46FF008010C
:102740000161042020772068C0698007204602D0FC
:10275000FFF7AEFF04E000F05FF8204600F05DF800
:10276000257720680169C943C90617D4C168C943E0
:10277000C90613D46FF0100101610820207720688A
:10278000C06910F4407F204602D0FFF791FF04E0BB
:1027900000F042F8204600F040F8257720680169F3
:1027A000C943C90708D1C168C943C90704D1891EF3
:1027B0000161204600F032F820680169C94309062A
:1027C00009D4C168C943090605D46FF080010161CD
:1027D0002046FFF7FDFE20680169C943490609D478
:1027E000C168C943490605D46FF040010161204624
:1027F00000F01EF820680169C94389060BD4C1683E
:10280000C943890607D46FF0200101612046BDE865
:102810007040FFF7DEBE70BD704770470068034927
:10282000884201D1FFF7C6BA70470000001000408F
:102830007047704770470000F8B5016804460868A3
:10284000CA684B6910F00F0F4FF0000559D003F024
:10285000010602F49077374365D0C10705D0D10552
:1028600003D5216C41F001012164410705D5D90749
:1028700003D0216C41F002012164810705D5D907FD
:1028800003D0216C41F004012164010707D502F057
:102890002001314303D0216C41F008012164216CF7
:1028A00000293AD0800604D5900602D5204600F0D3
:1028B00043FE20684069216CC0F38010090700D4F2
:1028C00060B3204600F003FE20684069400621D531
:1028D0002068143050E8001F21F0400140E8001249
:1028E000002AF5D1A06BA8B16C490165A06BFEF779
:1028F000BDFF002811D0A06B016D01B0BDE8F04014
:10290000084783060FD593060DD52046BDE8F8404D
:1029100000F012BE2046FFF78DFFF8BD2046FFF7FE
:1029200089FF2564F8BD266B2023012E79D1C606C8
:1029300077D5D60675D5086848680090486940067E
:1029400040D5A16B086840680004000CEAD0A28D55
:102950008242E7D9E085C869B0F5807F2DD0206834
:102960000C3050E8001F21F4807140E80012002A6A
:10297000F5D12068143050E8001F21F0010140E833
:102980000012002AF5D12068143050E8001F21F011
:10299000400140E80012002AF5D184F83E3025635A
:1029A00020680C3050E8001F21F0100140E80012B0
:1029B000002AF5D1A06BFEF710FFA08DE18D401A23
:1029C00081B229E0A08DE18D401A81B2E08D00280E
:1029D000A8D00029A6D020680C3050E8002F22F49F
:1029E000907240E80026002EF5D12068143050E89F
:1029F000002F22F0010240E80026002EF5D184F8D5
:102A00003E30256320680C3050E8002F22F0100281
:102A100040E80023002BF5D12046FFF70AFFF8BD60
:102A2000FFE705062BD5150629D594F83D0021288A
:102A3000F5D1A068B0F5805F01D12069B0B1206AFE
:102A4000411C2162216800784860E08C401E00042F
:102A5000000CE084E3D12068C16821F08001C160EE
:102A60002068C16841F04001C160D8E7206A008851
:102A7000C0F308004860206A801C2062E5E7400639
:102A8000CDD55006CBD5CA68204622F04002CA6098
:102A900084F83D3000F0E3F8C1E70000D9330008C6
:102AA00070B5040004D094F83D00002510B106E094
:102AB000012070BD84F83C50204600F023F824200B
:102AC00084F83D002068C16821F40051C1602046AF
:102AD00000F092FD2068016921F4904101612068B5
:102AE000416921F02A0141612068C16841F4005127
:102AF000C1602564202084F83D0084F83E00002059
:102B000070BD000070B586B0064614216846FDF71A
:102B10002BFD23493068884240D1224800250168B6
:102B200041F010010160006800F0100005901D48A0
:102B30001438016841F0020101600068694600F044
:102B400002000590C02000900220CDE9010503207D
:102B50000390072004901448FFF70CF8144C134816
:102B600020604FF00060C4E901054014C4E903503F
:102B700080106561C4E90650256220466562FEF753
:102B800057FF08B1FEF761FAB46300220521252042
:102B9000A663FFF795F92520FFF784F906B070BD0D
:102BA00000100140443802400004024040640240EA
:102BB000F006002090F83E30202B0ED159B152B1D2
:102BC00090F83C30012B08D0012380F83C300023E2
:102BD000036300F097BD012070470220704700009A
:102BE000F0B51D494B788C78DB0843EA4413CD7867
:102BF000A40944EA85050C794E7945EA84256408E0
:102C0000088844EAC614C0F30A02A1F11400B70907
:102C10000772C6F301164672CE8846810E898681F8
:102C20004E89C6810E7B06744E7B4674C989C3F3F8
:102C30000A034182A2F58062C5F30A050280A3F56A
:102C40008063C4F30A044380A5F580658580A4F5FC
:102C50008064C480F0BD0000544500207047704778
:102C6000FEE710B5044680EC020A30EE600A80ED03
:102C7000020AD0ED030AD0ED051A30EE601A21EEFB
:102C8000211A80ED081A90ED061A21EE001A80ED47
:102C9000091AB0EE001A00EEC10AD0ED040A04F1E0
:102CA000240030EE200AD4ED070A20EE200A84ED3D
:102CB0000A0A94ED0D0AB8EE400A00F0D8FD94ED32
:102CC000080AD4ED090A04F12C0030EE200AD4EDF4
:102CD0000A0A30EE200AD4ED0B0A30EE200A84ED09
:102CE0000B0A94ED0C0AB8EE400A00F0C0FD94ED1A
:102CF000030A84ED040A94ED020A84ED030A94EDBC
:102D00000B0A10BDDDE903120E4BA0F5007005386B
:102D100015D0032812D1586800280FD08BB25BBAA7
:102D2000090C038049BA418091B249BA8180110CE3
:102D30008171418B491C41830121017670471868DC
:102D4000EAE70000E400002010B50C4CDDE90512B4
:102D50008BB2A0F2012004EB40105BBA090C038097
:102D600049BA418091B249BA8180110C8171418B7D
:102D7000491C41830121017610BD000068450020F7
:102D80000188018200EE101A0021B8EE400A80EDA1
:102D9000050A01837047000030B52449DDE90623A8
:102DA000A0F2052051F820402588258251F82050B6
:102DB00094B264BA2C8051F82040120C52BA62804E
:102DC00051F820409AB252BAA2801A0C51F8203021
:102DD0009A7151F820201388148A1B1B144CA342AB
:102DE00002DA138B5B1C138351F82020138A158899
:102DF0005B1BA34202DA138B5B1E138351F8202066
:102E00001388B2F9184003EB443300EE103AB8EEE1
:102E1000C00A82ED050A51F82020D38B5B1CD383B6
:102E200051F820000122027730BD0000FC00002094
:102E30009CE6FFFFC16070470F4810B50D49016067
:102E40000721416000214FF400328160C0E9031284
:102E5000D20042610176012242768276C276017703
:102E60004177FEF776FB002803D0BDE81040FEF75F
:102E7000ECB810BD00640040040600200F4810B5F7
:102E80000D4901600721416000214FF4003281604B
:102E9000C0E90312D20042610176012242768276B5
:102EA000C27601774177FEF754FB002803D0BDE8D6
:102EB0001040FEF7CAB810BD006800402C06002084
:102EC000094808B5016841F48001016000680022EA
:102ED00000F48000009005213A20FEF7F1FFBDE8E4
:102EE00008403A20FEF7DEBF3038024030B52F4DA3
:102EF000AFB023AC95E80F0084E80F00002123A8B1
:102F000000F01CFD2A4C10350DF19C0C606195E819
:102F10000F008CE80F00002127A8103D00F00EFDE7
:102F20002035A06195E80F002BAD85E80F0000214A
:102F30002BA800F003FD1D49E0611C2230316846DA
:102F4000FDF7E0FA0021684600F00BFD174920600C
:102F50001C224C3107A8FDF7D5FA002107A800F084
:102F600000FD124960601C2268310EA8FDF7CAFA04
:102F700000210EA800F0F5FC0C49A0601C22843151
:102F800015A8FDF7BFFA002115A800F0EAFC0749D3
:102F9000E0601C22A0311CA8FDF7B4FA00211CA897
:102FA00000F0DFFC20612FB030BD0000305300087E
:102FB00000000020154808B5016841F001010160DA
:102FC000016801F001010091016841F00201016016
:102FD000016801F002010091016841F008010160FF
:102FE000016801F008010091016841F08001016071
:102FF000016801F080010091016841F02001016049
:10300000006800F02000009008BD00003038024049
:10301000104810B50E4901604FF4827141600021E3
:103020008160C1604FF400720161C0E90512302275
:10303000C0E90721416281620A21C162FFF734FAC7
:10304000002803D0BDE81040FDF7FFBF10BD000011
:1030500000500140540600200E4810B50C49016094
:103060000D4941604FF48051816000214FF480622E
:10307000C0E903120C22C0E90521C161FFF710FD70
:10308000002803D0BDE81040FDF7DFBF10BD0000F1
:1030900000100140AC060020A086010070EE601A0E
:1030A00031EE812ADFED161A22EE213AB1EE402AE6
:1030B00032EE602A32EE012A62EE212A30EEC02A78
:1030C00030EE200AFDEEC30A32EE012A30EE010A8C
:1030D00010EE901AFDEEE20A22EE212A018020EE87
:1030E000210A10EE901AFDEEC20A4180BDEEC00A20
:1030F00010EE901A818010EE101AC1807047000007
:103100009A99D93FFEE7FEE710B5044680EC020A23
:1031100030EE600A80ED020AD0ED030A70EE600A1C
:10312000C0ED040A90ED051A21EE001A80ED081A90
:1031300090ED091AD0ED061A01EE801A80ED091AF9
:1031400090ED070A04F1240020EE800A84ED0A0ABB
:1031500094ED0E0A00F08BFB94ED080AD4ED090AF9
:1031600004F12C0030EE200AD4ED0A0A30EE200AD9
:1031700084ED0B0A94ED0C0A00F079FB94ED020A41
:1031800084ED030A94ED0B0A10BD00001CB5214C20
:10319000B4F90200FDF734FEB4F90000FDF78CFE2F
:1031A0000020FDF71DFC1C4890ED030AB4F9040053
:1031B000B1EE401A00EE100AB4F90600F8EEC00AAB
:1031C00000EE100A6846B8EEC00AFFF767FF6846CF
:1031D000FDF736FC207A022818D1607A022815D132
:1031E000002020806080A0800C4AE080014600BF63
:1031F00002EB4113491CD8820429F9DB09489FEDF1
:10320000080A80ED030A084880ED030AFDF72CFB4D
:103210001CBD00004045002070460020684500208D
:103220000000000098460020B0460020012000F079
:1032300079FBFBE710B5502080F31188BFF34F8F67
:10324000BFF36F8F01F0D0FB18B104494FF08050ED
:103250000860002080F3118810BD000004ED00E03C
:1032600030B593B030216846FDF77EF914210CA8E3
:10327000FDF77AF91D480025016841F08051016091
:10328000006800F0805011901948016841F44041F5
:1032900001600068022400F4404011900120009079
:1032A000000401908001CDE9064006200890A82086
:1032B000CDE9090404200B906846FEF73FFF08B1F2
:1032C00072B6FEE70CA90F2081E831004FF4A05040
:1032D0000F904FF48050109005210CA8FEF722FEAD
:1032E000002801D072B6FEE713B030BD403802406E
:1032F000007000400248016841F4700101607047AD
:1033000088ED00E00148FFF7D4B900005007002025
:10331000F0B50268254C264D264E274F274B4FF01F
:10332000804CA04209D0604507D0A84205D0B042E9
:1033300003D0B84201D0984204D122F0700E4A68FE
:1033400042EA0E02A0421BD0604519D0A84217D015
:10335000B04215D0B84213D0984211D0184DA842AF
:103360000ED0184DA8420BD0174DA84208D0174DCB
:10337000A84205D0164DA84202D0164DA84203D14E
:1033800022F44075CA682A434D6922F080022A431C
:1033900002608A68C2620A688262A04201D09842D2
:1033A00001D10969016301214161F0BD00000140C3
:1033B0000004004000080040000C004000040140F0
:1033C0000040014000440140004801400018004016
:1033D000001C00400020004010B5806B0021C1851A
:1033E000C184FFF727FA10BD70B5846B206840696F
:1033F00094F83D10C0F3C0100025212904D118B164
:10340000E584204600F08AF82068406994F83E1070
:10341000C0F38010222904D118B1E585204600F0C0
:1034200056F8206C40F0100020642046FFF702FAA6
:1034300070BD10B50146806B09680968C9052FD4B5
:103440000021C18501680C3151E8002F22F48072FF
:1034500041E80023002BF5D10168143151E8002F19
:1034600022F0010241E80023002BF5D1016814315C
:1034700051E8002F22F0400241E80023002BF5D153
:10348000202180F83E10016B012909D101680C311F
:1034900051E8002F22F0100241E80023002BF5D163
:1034A000016B012902D0FFF79BFB10BD818DFFF757
:1034B000C0F910BD10B5806B016B012902D0FFF778
:1034C000CDFB10BD818D4908FFF7B3F910BD016830
:1034D0000C3151E8002F22F4907241E80023002BB8
:1034E000F5D10168143151E8002F22F0010241E8C2
:1034F0000023002BF5D1016B012909D101680C31A2
:1035000051E8002F22F0100241E80023002BF5D1F2
:10351000202180F83E1000210163704701680C31C2
:1035200051E8002F22F0C00241E80023002BF5D122
:10353000202180F83D10704708B590F83E102229F0
:1035400001D0022008BD82684FF480539A4201D115
:10355000016921B1816A9A421BD04AB10AE002682E
:10356000816A5268C2F308020A80816A891C08E0F5
:10357000026972B10268526802F07F020A70816AC1
:10358000491C8162C18D491E0904090CC18503D003
:1035900019E002685268F1E70168CA6822F0200267
:1035A000CA600168CA6822F48072CA6001684A6908
:1035B00022F001024A61202180F83E10016B0129AE
:1035C00003D0FFF70DFB002008BD00210163016857
:1035D0000C3151E8002F22F0100241E80023002BAB
:1035E000F5D101680A68D20602D50A6849680091D7
:1035F000818DFFF71EF9E6E770B5044600680169A2
:10360000E26821F44051114301612169A068E26937
:1036100008436169114308432168CA6849F20C6391
:103620009A430243CA6020684169A26921F440714B
:103630001143416131492068884202D030498842B3
:1036400002D1FEF739FD01E0FEF726FDE269002315
:10365000192164253226B2F5004F626828D0A0FBFC
:103660000101930F9200FCF791FE0146B0FBF5F0CB
:103670006FF01802504301EB800006EB0010B0FB26
:10368000F5F000F0F002B1FBF5F002EB0012B1FB37
:10369000F5F06FF01803584301EB800006EB0010C3
:1036A000B0FBF5F000F00F0021681044886070BD99
:1036B000A0FB010192185B41FCF768FE0146B0FBDC
:1036C000F5F00201B1FBF5F06FF01803584301EB80
:1036D000800006EBC000B0FBF5F000F0F80002EB54
:1036E0004002B1FBF5F0584301EB800006EBC0004F
:1036F000B0FBF5F000F00700D6E700000010014035
:103700000014014038B581628285002513460446C5
:103710000564222084F83E00A26B1B48D063A26B94
:103720001A481064A26B1A48D064A06B0A4605655B
:103730002168A06B091DFEF7E5F920680168406863
:10374000009084F83C5020680C3050E8001F41F491
:10375000807140E80012002AF5D12068143050E84A
:10376000001F41F0010140E80012002AF5D1206855
:10377000143050E8001F41F0400140E80012002AD8
:10378000F5D1002038BD000033340008B5340008FE
:10379000E93300080148FFF74FB80000AC060020ED
:1037A0002349DFED240A9FED240A91ED001A2348F6
:1037B000DFED231A01EE600A80ED000A91ED011A97
:1037C000083121EE201A21EE211A80ED011A91ED27
:1037D000001A21EE201A80ED051A91ED011A1949FF
:1037E00061EE200AC0ED060AD0ED020A30EE601A42
:1037F00011EE102A8A4202D9C268521CC26070EED1
:10380000C00A10EE902A8A4202D9C168491EC160DE
:10381000D0ED030ADFED0C1AB8EEE01AF0EE400A24
:1038200041EE210AC0ED040A80ED020A7047000053
:10383000D4000020E12E6542000034C32045002062
:103840008805B641000096C30000B443FEE70907AF
:10385000090E002804DB00F1E02080F80014704716
:1038600000F00F0000F1E02080F8141D7047D0ED4B
:10387000000AF4EEC00AF1EE10FA01DD80ED000A54
:10388000D0ED000AB1EE400AF4EEC00AF1EE10FAF3
:1038900001D280ED000A70470648074990ED040AFE
:1038A00081ED010A90ED010A01F1180080ED050A91
:1038B000704700002045002098460020FEF782FA5D
:1038C000FFF7CEFCFFF776FBFFF7FAFAFFF7B4FA43
:1038D000FFF7D4FAFFF7C0FBFFF79AFB094C012171
:1038E000094822689047226802210848904712221E
:1038F00007490848FFF75EF9FFF7F8FA00F019F8F2
:10390000FEE700009C000020040600202C0600209A
:1039100054450020AC06002001460020842900D038
:10392000C81C704710B500B9012000F0FBFB002057
:1039300010BD10B500F088FC002010BD38B5D0E9EE
:10394000011204683AB1C3682BB1002000902046F0
:1039500000F081FD38BD2046BDE83840002200F06F
:1039600059BD7FB50D4604464169B0F9080081B1E3
:10397000A16971B1FFF7D0FFD4E905128DE8070006
:10398000D4E900102B46226900F0EFFF039004B049
:1039900070BDFFF7C1FF03A9CDE90001208A2B46C6
:1039A00082B2D4E9001000F0B3FF012801D000205A
:1039B000EDE70398EBE700002DE9F041184C0F46C6
:1039C0000546E6682068001D00F0BAFA38B920689C
:1039D00090F82C1001208840216981432161681CE6
:1039E00007D137B12168BDE8F0410E48091D00F04C
:1039F000EBBA20683544B5424560216805D2A06B1A
:103A0000BDE8F041091D00F0C7BA606B091D00F068
:103A1000C3FAA06A854200D2A562BDE8F081000029
:103A200034000020740800202DE9F041054600F024
:103A3000D7FA2E4CA068401CA06020682C4F10B113
:103A4000606940B32DE02560A068012829D10026D7
:103A500006EB860007EB800000F090FA761C072E3C
:103A6000F6D323488C3000F089FA2148A03000F0CA
:103A700085FA1F48B43000F081FA1D48C83000F0C4
:103A80007DFA1B48DC3000F079FA19488C3060630D
:103A90001430A06305E02068E96AC06A884200D853
:103AA0002560606A401C6062E96A012022698840E2
:103AB0001043206101EB810007EB8000291D00F01D
:103AC00083FA00F0ADFA606900280CD02068E96A3A
:103AD000C06A884207D207494FF080500860BFF3A0
:103AE0004F8FBFF36F8FBDE8F081000034000020DE
:103AF0009807002004ED00E030B4026C0B46002A69
:103B00000BD0C1681144C1608468A14201D301682F
:103B1000C16030BC1846FCF7B0BC30BC70472DE922
:103B2000F041856B174604460026026C82B1C7B18E
:103B3000E068FCF7A2FCE168206C091AE1602268E9
:103B4000914202D2A168081AE060022F16D017E055
:103B50002068A8B9A06800F0ADFF06460020A0606C
:103B60000EE06068FCF789FC216C606808446060C6
:103B7000A168884204D32068606001E005B16D1E31
:103B80006D1CA5633046BDE8F08110B5044690F881
:103B9000510058B101280CD002280FD0502080F3DA
:103BA0001188BFF34F8FBFF36F8FFEE7206B00F0DC
:103BB0004BFA2046BDE8104000F046BA10BD0000A8
:103BC00010484FF47051420706D0C01D0D4920F037
:103BD0000700411AC1F570510B4A00230144C2E9A4
:103BE00000030839183A21F0070111604B600B609F
:103BF0000B1AC0E9001393604FF00040536050610E
:103C0000704700008808002088000020144E154CE2
:103C1000A6F1C8074FF08058DFF84C9012E000BFC3
:103C200000F0DEF9F068C568281D00F089F9A06889
:103C3000401EA0606068401E606000F0F1F92846F8
:103C4000FFF7A3FF60680028EAD138680128F9D996
:103C5000C9F80080BFF34F8FBFF36F8FF2E700000A
:103C6000600800203400002004ED00E003460098C6
:103C700029B10260C0E90F31012100F01FBC0060D2
:103C8000F8E72DE9F0479A46DDE9098481466FF0AF
:103C90000303206B03EB82021044089E20F0070709
:103CA000780707D0502080F31188BFF34F8FBFF300
:103CB0006F8FFEE7002561B1002023180A5C83F8AE
:103CC00034200A5C12B1401C1028F6D384F843500B
:103CD00001E084F83450072E00D30626E662C4E9DA
:103CE0001165201D00F055F904F1180000F051F99C
:103CF0002461C6F107006462A061E56484F8505055
:103D000052464946384600F005F92060B8F1000FE8
:103D100001D0C8F80040BDE8F087000030B5114977
:103D200000E011460A688242FBD34B685C1884426B
:103D300003D1406818444860084643681C18944200
:103D400009D1084C183C2468A24209D052681A4490
:103D500042600A6812680260814200D0086030BD8B
:103D60000460F9E78800002010B5044600F038F937
:103D7000A06B28B15FF0000400F052F9204610BD9E
:103D80000124F9E70648416B096829B1416BC9680C
:103D9000C9684968816270474FF0FF31FAE7000057
:103DA0003400002008484068401C4FF0500080F369
:103DB000118804D0BFF34F8FBFF36F8FFEE7BFF3BF
:103DC0004F8FBFF36F8FFEE7900000202DE9F04189
:103DD000044600F005F994F9455004F1240609E081
:103DE000606A48B1304600F0B1FE08B100F00EFA4A
:103DF0006D1E6DB2002DF3DC4FF0FF3684F8456088
:103E000000F00EF900F0ECF894F9445004F11007BA
:103E100009E0206948B1384600F098FE08B100F08A
:103E2000F5F96D1E6DB2002DF3DC84F84460BDE839
:103E3000F04100F0F5B800002DE9F04105460027FB
:103E400000F038FA324E306808B9FFF7B9FE7069F1
:103E500005424ED1C5B3083568070ED005F00700FE
:103E6000C0F108000544680707D0502080F311888E
:103E7000BFF34F8FBFF36F8FFEE72DB3706885429E
:103E800037D82348183001460C6801E020460C461C
:103E90006168A94202D221680029F7D131688C42B9
:103EA00027D007682168016060680837411B102926
:103EB0000FD96019420708D0502080F31188BFF352
:103EC0004F8FBFF36F8FFEE713E041606560FFF730
:103ED00025FF61687068401A7060B268904200D235
:103EE000B060706901430020C4E90001F068401C23
:103EF000F06000F065FE780707D0502080F311884D
:103F0000BFF34F8FBFF36F8FFEE73846BDE8F081F8
:103F10007000002010B5031F4FF080741C601B1F41
:103F200021F001011960191F044B0B6014390A605C
:103F3000091F6FF0020244380A6010BDA53D000859
:103F4000D0E9013201699A60D0E901235A604A68D8
:103F5000824201D182684A60002202610868401EE4
:103F60000860086870470000034B036003F15400C9
:103F70000860802010607047B003002000F1080145
:103F80004FF0FF32C0E90112C16001610021016000
:103F9000704700210161704730B50B685A1C02D090
:103FA00000F1080202E0026904E022465468256834
:103FB0009D42FAD953684B6099608A6051600861EC
:103FC0000168491C016030BD42684A6093688B609B
:103FD00093685960916008610168491C01607047ED
:103FE000502080F31188BFF34F8FBFF36F8F0A49C2
:103FF0004868401C486001280CD10848006810F04F
:10400000FF0F07D0502080F31188BFF34F8FBFF30D
:104010006F8FFEE7704700009000002004ED00E085
:104020000849486828B1401E486001D180F31188D2
:104030007047502080F31188BFF34F8FBFF36F8F0D
:10404000FEE700009000002070B500282AD0164D31
:10405000A0F1080460686969084207D1502080F324
:104060001188BFF34F8FBFF36F8FFEE722683AB11D
:10407000502080F31188BFF34F8FBFF36F8FFEE79F
:104080008843606000F016F96068696808446860F9
:104090002046FFF743FE2869401C2861BDE87040B8
:1040A00000F08EBD70BD0000700000204FF0E020D9
:1040B00000210161816105494FF47A720968B1FB01
:1040C000F2F1491E41610721016170473000002073
:1040D00010B5FCF737F9114910280ED300F1E02094
:1040E00090F8F0030A78904207D2502080F31188AC
:1040F000BFF34F8FBFF36F8FFEE7094800688968F1
:1041000000F4E060884207D9502080F31188BFF3A3
:104110004F8FBFF36F8FFEE710BD000090000020AF
:104120000CED00E010B5020014D00F48006B38B160
:10413000502080F31188BFF34F8FBFF36F8FFEE7DE
:1041400000F0B8F800211046FFF736FC00F038FD0B
:10415000002807D105494FF080500860BFF34F8F0A
:10416000BFF36F8F10BD00003400002004ED00E0AD
:1041700070B50D4604000BD095B11E4A106BB8B156
:10418000502080F31188BFF34F8FBFF36F8FFEE78E
:10419000502080F31188BFF34F8FBFF36F8FFEE77E
:1041A000502080F31188BFF34F8FBFF36F8FFEE76E
:1041B00000F080F8D26823685919934204D98B42E1
:1041C0000AD9914202D807E08B42FAD9881A2160B5
:1041D0000021FFF7F1FB00E0216000F0F1FC002876
:1041E00007D105494FF080500860BFF34F8FBFF3F0
:1041F0006F8F70BD3400002004ED00E002490A6AB0
:104200000260C96841607047340000200149012004
:10421000C86170473400002010B50C4650B1094900
:1042200009681831FFF7B8FE2046BDE810400121AB
:10423000FFF7C2BB502080F31188BFF34F8FBFF34D
:104240006F8FFEE73400002010B586B00024039481
:1042500005AA04A903A80494FFF786FEDDE903017B
:104260000094CDE9011000230EA11048059A00F03A
:104270007CFB0F490028C86211D0502080F31188C0
:10428000BFF34F8FBFF36F8F4FF0FF308862012075
:104290004861CC6006B0BDE8104000F041B806B0FF
:1042A00010BD000049444C45000000000D3C0008D2
:1042B000340000200248016B491C01637047000074
:1042C000340000201448016B11B10121C161704715
:1042D0000021C1610169B1FA81F1C1F11F0101EB56
:1042E00081020E4951F822306BB101EB820101F1DC
:1042F00008034A6852684A609A4201D152684A608B
:10430000D16801607047502080F31188BFF34F8F50
:10431000BFF36F8FFEE700003400002098070020F5
:104320001CB537480168374A914207D1502080F3C5
:104330001188BFF34F8FBFF36F8FFEE700683149DD
:10434000491E884207D1502080F31188BFF34F8F58
:10435000BFF36F8FFEE72C4908780190FF200870AB
:1043600008788DF800009DF800009DF8002000F00E
:10437000F000904207D0502080F31188BFF34F8F98
:10438000BFF36F8FFEE79DF80000204C00F0500057
:1043900020700720A06005E09DF8002052008DF8F5
:1043A0000020401E9DF800201206F5D4A0600328CE
:1043B00007D0502080F31188BFF34F8FBFF36F8F6A
:1043C000FEE74FF44070A060019808700C48203060
:1043D000016841F470010160016841F070410160C1
:1043E000FFF764FE00206060FBF774FF0848016877
:1043F00041F040410160FBF759FF00201CBD000067
:1044000000ED00E071C20F4100E400E090000020E8
:1044100034EF00E0F8B517460E46050013D005FB53
:1044200006F04830FFF708FD04000AD0002084F8A9
:10443000460004F148023B46314628460094FFF707
:1044400015FC2046F8BD502080F31188BFF34F8F34
:10445000BFF36F8FFEE738B5049D18B153B1CAB1F1
:1044600081B120E0502080F31188BFF34F8FBFF35C
:104470006F8FFEE7502080F31188BFF34F8FBFF39B
:104480006F8FFEE7502080F31188BFF34F8FBFF38B
:104490006F8FFEE739B1502080F31188BFF34F8F43
:1044A000BFF36F8FFEE748241C46012384F8463093
:1044B0002B460094FFF7DAFB204638BD70B50D4659
:1044C000040025D0FFF78CFDD4E90F20216802FB02
:1044D0000011A1600021A163216861600A46D4E94E
:1044E0000F01401E00FB0121E16021464FF0FF302B
:1044F00001F8440F487004F110008DB1FFF73EFD44
:1045000004F12400FFF73AFDFFF78AFD012070BD9A
:10451000502080F31188BFF34F8FBFF36F8FFEE7FA
:1045200021690029F0D000F011FB0028ECD00449EB
:104530004FF080500860BFF34F8FBFF36F8FE3E7FA
:1045400004ED00E02DE9FF4782B01D468A464FF09A
:104550000008040003D0BAF1000F08D011E0502089
:1045600080F31188BFF34F8FBFF36F8FFEE7206C8E
:1045700038B1502080F31188BFF34F8FBFF36F8F96
:10458000FEE7022D0AD1E06B012807D0502080F30E
:104590001188BFF34F8FBFF36F8FFEE700F010FA63
:1045A0003F4F4FF000094FF0805648B9049838B19A
:1045B000502080F31188BFF34F8FBFF36F8FFEE75A
:1045C000FFF70EFDA06BE16B884207D3022D05D0EB
:1045D0000498D0B1B8F1000F1AD01EE02A46514617
:1045E0002046FFF79CFA616A19B104F1240000F03B
:1045F000ADFA20B13E60BFF34F8FBFF36F8FFFF76F
:104600000FFD012006B0BDE8F087FFF709FD22E0AD
:104610006846FFF7F3FD4FF00108FFF701FDFFF7D4
:1046200049FEFFF7DDFC94F94400401C01D184F8F9
:10463000449094F94500401C01D184F84590FFF75F
:10464000EFFC04A9684600F029F930B12046FFF7D5
:10465000BDFB00F0B5FA0020D4E7FFF7C1FCA06B6A
:10466000E16B884213D1FFF7DBFC04F110000499E1
:10467000FFF7D2FD2046FFF7A9FB00F0A1FA0028C2
:104680009ED13E60BFF34F8FBFF36F8F98E7FFF768
:10469000C7FC2046FFF79AFB00F092FA90E7000073
:1046A00004ED00E02DE9F0471F46904689460400DE
:1046B00003D0B9F1000F08D011E0502080F3118829
:1046C000BFF34F8FBFF36F8FFEE7206C38B15020E0
:1046D00080F31188BFF34F8FBFF36F8FFEE7022F78
:1046E0000AD1E06B012807D0502080F31188BFF376
:1046F0004F8FBFF36F8FFEE7FFF7EAFC5020EFF319
:10470000118680F31188BFF34F8FBFF36F8FA06BBB
:10471000E16B884206D3022F04D0002086F3118873
:10472000BDE8F08794F94550A06B3A4649462046CB
:10473000FFF7F5F9681C04D06D1C84F84550012082
:10474000ECE7606A0028FAD004F1240000F0FEF9DA
:104750000028F4D0B8F1000FF1D00121C8F8001002
:10476000EDE700002DE9F747002683B08A460400F4
:1047700003D0BAF1000F08D011E0502080F3118867
:10478000BFF34F8FBFF36F8FFEE7206C38B150201F
:1047900080F31188BFF34F8FBFF36F8FFEE700F0F8
:1047A0000FF9DFF8F4804FF000094FF0805748B957
:1047B000059838B1502080F31188BFF34F8FBFF3B5
:1047C0006F8FFEE7FFF70CFCA56BC5B15146204685
:1047D000FFF792F96D1EA563206950B104F1100036
:1047E00000F0B4F928B1C8F80070BFF34F8FBFF3E1
:1047F0006F8FFFF715FC012006B0BDE8F087059824
:1048000008B11EB106E0FFF70BFC27E06846FFF792
:10481000F5FC0126FFF704FCFFF74CFDFFF7E0FB7A
:1048200094F94400401C01D184F8449094F9450067
:10483000401C01D184F84590FFF7F2FB05A96846BA
:1048400000F02CF8002820460AD0FFF7BFFA00F04D
:10485000B7F92046FFF788FA0028B3D00020CBE74D
:10486000FFF782FA90B104F124000599FFF7D4FC18
:104870002046FFF7ABFA00F0A3F90028A2D1C8F850
:104880000070BFF34F8FBFF36F8F9BE72046FFF79A
:104890009DFA00F095F995E704ED00E02DE9F0416F
:1048A0000C46050011D0C4B1FFF79AFB174BDA682C
:1048B0006E682068911B471C17D02F681B6A9F42A7
:1048C00019D0964217D8012410E0502080F31188A7
:1048D000BFF34F8FBFF36F8FFEE7502080F3118837
:1048E000BFF34F8FBFF36F8FFEE70024FFF798FBF6
:1048F0002046BDE8F081884205D9401A206028464C
:10490000FFF77CFCF1E700202060DCE734000020AA
:104910002DE9FF5F8346DDE90E87994616468A46F4
:104920009000FFF789FA05001CD05420FFF784FAA5
:10493000040014D00020256384F85100CDE9024022
:10494000CDE900874B46324651465846FFF799F964
:104950002046FFF769F8012004B0BDE8F09F284623
:10496000FFF772FB4FF0FF30F6E7F0B585B0DDE9F9
:104970000B640A9DA6B1DCB154270097266302267A
:1049800084F85160002604AFCDE90246CDE9005716
:10499000FFF777F92046FFF747F8049805B0F0BD18
:1049A000502080F31188BFF34F8FBFF36F8FFEE766
:1049B000502080F31188BFF34F8FBFF36F8FFEE756
:1049C0000548416919B1006B18B1002070470120FA
:1049D0007047022070470000340000200148C06882
:1049E00070470000340000202DE9F0412F4C0026D4
:1049F000206B28B1A069401CA0613046BDE8F08161
:104A0000E5686D1CE56013D1606B006838B150201B
:104A100080F31188BFF34F8FBFF36F8FFEE7606B9A
:104A2000A16B6163A063206A401C2062FFF7AAF9B2
:104A3000A06ADFF87C80854209D3606B0068A0B172
:104A4000606BC068C7687868854211D2A062206830
:104A5000C06A00EB800158F82100012800D9012626
:104A6000E0690028C9D00126C7E74FF0FF30EDE725
:104A7000381DFFF765FAB86A18B107F11800FFF79B
:104A80005FFAF96A0120226988401043206101EB36
:104A9000810108EB8100391DFFF796FAF86A216859
:104AA000C96A8842C9D30126C7E700003400002044
:104AB0009807002070B504004FF0000140D0214D50
:104AC0002868844207D0502080F31188BFF34F8FAD
:104AD000BFF36F8FFEE7A06C38B1401EA064636C1B
:104AE000E26A9A422CD040B12AE0502080F311882B
:104AF000BFF34F8FBFF36F8FFEE7201DFFF720FA44
:104B0000114A012150B9E06A00EB800352F82330CA
:104B100023B92B6901FA00F083432B61606CE062DA
:104B2000C0F10700A061E06A2B6981401943296147
:104B300000EB800002EB8000211DFFF745FA012108
:104B4000084670BD34000020980700202DE9F04190
:104B5000C068C468ACB104F118000746FFF7F0F96B
:104B6000154D286B0126A0B139461448FFF72CFAE1
:104B7000E06A2968C96A88421CD90120EE61BDE853
:104B8000F081502080F31188BFF34F8FBFF36F8FF8
:104B9000FEE7201DFFF7D4F9E16A2A6906FA01F061
:104BA0001043286101EB81000449B43901EB800016
:104BB000211DDBE70020E2E7340000204C08002044
:104BC0002DE9F0472C4D00242746286B38B1FFF71C
:104BD00007FA286B401E2863286B40B146E050203E
:104BE00080F31188BFF34F8FBFF36F8FFEE7A96883
:104BF000224E0120D1B3A6F1B40980463068E8B155
:104C0000F068C46804F11800FFF79AF9201DFFF757
:104C100097F9E06A2A6908FA00F11143296100EB6B
:104C2000800109EB8100211DFFF7CEF9E06A2968B8
:104C3000C96A8842E2D3C5F81C80DFE70CB1FFF7F0
:104C4000A1F8AC6944B14646FFF7CEFE00B1EE6173
:104C5000641EF9D10020A861E86938B1084901272C
:104C600038070860BFF34F8FBFF36F8FFFF7D8F996
:104C70003846BDE8F0870000340000204C080020D2
:104C800004ED00E021F00042A2F16052B2F5801F75
:104C900001F0004328BFD2F17F6C0BD95FEA001C02
:104CA00043EAC20242EB507018BF704728BF20F0A1
:104CB00001007047B2F5801FBCBF184670474FEA2D
:104CC000410C1CF5001F02D2084600F02BBB70B54A
:104CD00000F074F900000089FFF7F6BF4FF00040C4
:104CE000A0F580007047000010B591EA030F48BF9F
:104CF00083F0004300F1BE81841A71EB030C05D2EE
:104D0000121943EB0C03001B61EB0C01DFF824E1EB
:104D10004FEA1154A4EB135C1EEA430F18BF9EEA3E
:104D2000445F73D023EA0E03DCF1200E21EA045124
:104D300043F4801332D322FA0CFE10EB0E0023FA58
:104D40000CFE41EB0E01CCF1200E03FA0EFE10EB2F
:104D50000E0051F10001B1F5801FCCF1200E32D2CE
:104D600001EB045112FA0EF2BDE8104058BF704733
:104D7000401C38BF5FEA420218BF7047002814BFCA
:104D800020F0010041F100014FEA410313F5001F3B
:104D900038BF7047A1F1C04100F05EB9012A43EB72
:104DA0000302ACF1200CDCF11F0E32BF4FF0000EFD
:104DB00023FA0CF310EB030041EB0451B4EB115F49
:104DC000D0D0A1EB045101F5801149085FEA300011
:104DD00001EB04510ED350F1000038BF12FA0EFE61
:104DE00008D1BDE81040C9E7401C38BF5FEA420265
:104DF000CAD1C3E7BDE810404FEA410313F5001FD5
:104E000038BF7047A1F1C04100F026B99EEA445F67
:104E100008D011EA5E0FBDE8104004BF01F0004168
:104E200000207047BDE8104070B500F0C7F800BF23
:104E300064FBBE3E0000E0FF10F0004248BF40426D
:104E4000B0FA80F310FA03F10AD0C3F11D0303F5A1
:104E500080634FEA415002EB035202EBD1217047CD
:104E60004FF0000070470000DFF848C170B51CEA41
:104E7000111E1EBF1CEA13159EEA0C0F95EA0C0FBB
:104E800000F06F8081EA030423EA4C134EEAD47EDB
:104E900021EA4C1141F4801143F48013AE44A1FB8C
:104EA000024CA0FB0365AEF17F7E361955EB0C0575
:104EB000A1FB034C4CF10003A0FB021C16EB0C06FB
:104EC000654153F10003094218BF46F0010613F48F
:104ED000007F0BD14FEA03314FEA0530340341EA3A
:104EE000155140EA16506FF003020AE04FEAC32161
:104EF0004FEAC520F40241EA555140EA56506FF09E
:104F0000020202EB2E4201EB025585EACE710AD075
:104F10005FEA440C18BF24F0004450F1000041F156
:104F2000000120EAD47040F2FE7C624500D270BDE0
:104F3000A84214BF4FF080444FF04044002E08BFF9
:104F40000024BEF1806FA8BFA1F1C041BDE8704050
:104F500080F282804FF0000001F1C04101F0004179
:104F600070479EEA0C0F0CEA131518BF95EA0C0F58
:104F700006D04FF0000081EA030E0EF0004170BD34
:104F800000F01CF88900013E00F007B800F009B8F5
:104F90004FEA430C5FEA5C5C08D081EA030100F051
:104FA0005BB84FEA410C5FEA5C5CF6D14FF0000061
:104FB000014970470000FF070000F87F0EF1020E64
:104FC0002EF0030E5EF8046B364205D4012A43EB43
:104FD000030515F5001F12D8012841EB010C1CF543
:104FE000001F0CD80ED14FEAD17C15F5001F0CEB39
:104FF0004C0C0CF1020C08BF4CEBD37C04E04FF0DE
:10500000080C01E04FEAD37C0CEB4C0526FA05F6C0
:1050100006F00706B6F1040C06D20EEB860CBDE8CE
:1050200070404CF0010C6047DFE80CF0090B020205
:105030004FF000414FF00000A1F5002170BD19466E
:105040001046012851EB010418BFD4F5001484BFA9
:10505000002001F0004170BD0808A0F500114FEAE2
:105060003101704710B591EA030F48BF83F0004348
:105070003FF542AE841A71EB030C07D212198CF083
:10508000004C43EB0C03001B61EB0C01DFF8A4E1C7
:105090004FEA1154A4EB135C1EEA430F18BF9EEABB
:1050A000445F00F0B08023EA6E03524221EA0451CB
:1050B000C3EB6E0338BF5B1EDCF1200E25D322FA52
:1050C0000CFE10EB0E0043FA0CFE41EB0E01CCF18E
:1050D000200E03FA0EFE10EB0E0051F10001CCF190
:1050E000200E29D412FA0EF201EB0451BDE8104053
:1050F00058BF7047401C1CBFB2F1004F70470028DA
:105100000CBF491C20F00100704712EB020E43EB6C
:10511000030218BF4FF0010E4EEA4202ACF1200C20
:10512000DCF11E0E54D943FA0CFE10EB0E0051F1C7
:10513000FF31CCF11E0ED5D50EF1010E12FA0EFE86
:10514000404141EB010101EB445C5FEA5C5C10D93A
:1051500010EBDE7001EB045138BFBEF1004FBDE82B
:10516000104018BF704700280CBF491C20F00100F8
:10517000704730D24FEAD42C11F5001124F40064AA
:105180001BD0B1FA81F20B3AA41AA41ED2F120036B
:10519000914030FA03F31943904001EBCC71002C9D
:1051A00001EB0451BDE81040A8BF704701F1C041B8
:1051B0004FF0000001F000417047B0FA80F310FAA0
:1051C00003F100D110BDE41A173C4805C90AE4E711
:1051D00001EB045110BD491001EB0451BDE8104032
:1051E0004FEA300002E04FF0000170474A0008BF6C
:1051F0000042F8D0B2F5001F28BF704701F000410F
:105200004FF0000070479EEA445F07D011EA5E0F3E
:10521000BDE8104004BF002100207047BDE81040E9
:1052200070B5FFF7CBFE00BF40DFF63E83F00041D4
:10523000104670470000E0FF43004FEAD30C4FEAEE
:105240003C0C43401FBF40070CF1605113F0FE4F70
:1052500070471CF0006F03D100200CF00041704734
:105260000CF0004343EA507010B540EACC0000F067
:105270000EF800BF000000924FEA0001FFF7ECBEFD
:105280004FF000414FF00000A1F5002170470EF1F2
:10529000020E2EF0030E5EF8044B244204D44FEAB3
:1052A0004102B2F17F4F11D84FEA4003B3F17F4F73
:1052B0000CD80ED14FEAD07CB2F17F4F0CEB4C0CE6
:1052C0000CF1020C08BF4CEBD17C04E04FF0080C51
:1052D00001E04FEAD17C0CEB4C0324FA03F404F018
:1052E0000704B4F1040C06D20EEB840CBDE81040A8
:1052F0004CF0010C6047DFE80CF0070802024FF0A9
:105300000040A0F5800010BD0846420018BFD2F151
:10531000807288BF00F0004010BD4FF04070E1EE99
:10532000100A7047FF2141EAD050C00570470000C5
:105330002000000024000000000000000000000029
:105340002000000024000000000000000000000019
:105350002000000024000000000000000000000009
:105360004C5400082D32000800000000000000002E
:105370008000000000000000000000000C54000845
:105380000D090008020000000000000000010000FC
:1053900000000000000000001C540008650900081F
:1053A00002000000000000000001000000000000FA
:1053B000000000002C540008310600080200000024
:1053C00000000000000100000000000000000000DC
:1053D0003C540008511000080200000000000000CA
:1053E0008001000000000000000000000006101610
:1053F0000006101600000000000000000102030477
:105400000607080900000000010203045461736BE1
:105410005F43616E314D7367526563005461736B16
:105420005F43616E324D7367526563005461736B05
:105430005F43616E53656E64000000005461736BDE
:105440005F53616D706C696E670000006465666132
:10545000756C745461736B00785400080000002070
:10546000B0030000E801000868550008B003002000
:1054700078490000440200080124320182100361CF
:1054800024F41AAA014113C10714080D081B08C50A
:105490000413A50A2308B41B20BA04C113590F1B17
:1054A000087D0413A1371B08D5241AF92C01101309
:1054B000E845142008461420492D1B0805041359FB
:1054C0000B1B08F52C1A28141A4C041A99141335BE
:1054D0002E1B0881081A251C011A2F20410AD723E8
:1054E0003C080111224023B80B0B16632C4009A481
:1054F0003C1318011B2054041A90041ACC040916FA
:1055000054C908B184E0AB450B160931941AA07A4E
:105510000915400B21409C400B18C84240831C4693
:105520000B16310C400A19C0802940137A440E141E
:10553000606A46810B40051A3333B33E53FA430E7B
:1055400016803B45710D805A48C001131978211A05
:10555000F0981C7A45C1C013BD06140809071B0842
:0855600055041AA1040000002B
:04000005080001AD41
:00000001FF
